:020000040000fa
:080000000002040000000000f2
:020000040000fa
:1000080036030000085000000c500000105000009b
:1000180014500000360300003603000036030000c9
:10002800185000001c500000205000002450000010
:1000380036030000285000002c500000305000000b
:1000480034500000385000003c5000004050000080
:1000580044500000485000003603000036030000fa
:100068004c50000050500000545000005850000000
:100078005c5000003603000060500000645000002f
:1000880036030000685000006c50000070500000fb
:1000980074500000785000007c5000008050000030
:1000a800845000008850000036030000360300002a
:1000b800360300008c50000090500000945000005f
:1000c800985000009c500000a0500000a450000070
:1000d800a8500000ac5000003603000036030000b2
:1000e80036030000b0500000b45000003603000092
:1000f80036030000b8500000bc5000003603000072
:100108003603000036030000360300003603000003
:100118003603000036030000c0500000360300001c
:1001280036030000c4500000c8500000cc50000046
:1001380036030000360300003603000036030000d3
:10014800d0500000360300003603000036030000dc
:1001580036030000d45000003603000036030000c8
:1001680036030000d8500000dc500000e0500000ca
:10017800e4500000e85000000c510000ec50000072
:10018800f0500000f4500000f8500000fc5000004f
:10019800005100000451000036030000360300003f
:1001a8003603000036030000360300003603000063
:1001b8000851000036030000360300003603000033
:1001c8003603000036030000360300003603000043
:1001d8003603000036030000360300003603000033
:1001e8003603000036030000360300003603000023
:0801f80036030000360300008d
:020000040000fa
:100400008fda20000eff27000e0188000000000098
:10041000000020000000e000020032000001200087
:10042000200288000c00070060d32000010020009b
:100430000f000700000020000000e0000200320072
:100440000000020000000000ba06020000000000e8
:100450000040da000000fe00200020000000e00064
:100460000200320010002000900188000000060009
:10047000a1028800800078000000eb001a0037001d
:10048000e280400054a0b4009101ba00e280400034
:1004900054a0b4009102ba00e280400054a0b4001d
:1004a0000002eb00472bde00f507b200a601880032
:1004b000602ce10008003a000049eb000201e8006e
:1004c000020039003420ec0002f0a0008301e900b2
:1004d000f9ff3e00040037006128e100010032000e
:1004e0000082eb00040007001101ba000200e000e6
:1004f000e3ff3a000000060004d0a300e20f490029
:100500001c003900810278003549ba000201e80078
:10051000020039003420ec0002f0a0008301e90061
:100520000f0032002549ba000201e800020039003c
:100530003420ec0002f0a0008301e9000800320042
:100540000400e0000600320015c9ba000201e8000c
:10055000020039003420ec0002f0a0008301e90021
:100560008180e80054a0b4000300e000e2ff3a00fc
:10057000000006009102ba00055978008301e900e5
:10058000f7ff3200c82ade00055978008301e90030
:10059000f3ff32000400e000f1ff320011d9ba008d
:1005a000eeff37005400f800a102880080027800b6
:1005b00062004000e08048003549ba003204e000a3
:1005c0000410a700100032008301e9000e00320081
:1005d0002549ba003204e0000410a7000a003200e6
:1005e0008301e900080032000408a300eeff320096
:1005f00015c9ba003204e0000410a700020032005e
:100600008301e900e8ff3a005400f9000000060009
:100610000900370030427800b1417800834f520022
:100620000400320010002000060031000080eb00c2
:10063000000006000201e9000200e000f5ff3a00b8
:100640000000eb0000000600800178000200370087
:10065000b15978000201e9000200e000fcff3a0015
:10066000000006000040da000000fe000000fe006e
:020000040000fa
:10067000609520001081fb008001eb000040eb0042
:10068000e40f5100e08f59003b003e000260010082
:1006900004003700180037001a0037001a0037002e
:1006a0001b003700b14a8000c808de00f00f2000b0
:1006b00084952000140260004822dd00048170004f
:1006c000c14a8000c808de00a49520001400600024
:1006d0004800dd00808170000040eb0094f42400ad
:1006e00095f42400840f5100858f590022003a00b0
:1006f0001f03070002003700709520001e0307004b
:1007000010000500a802370070952000e3023700b2
:1007100020002000804a8800b34a8000c819de000b
:10072000f20f200084952000140261004822dd00b1
:1007300004807100c34a8000c819de00a49520001f
:10074000140161004811dd0082807100604a880058
:10075000714a8800b0020700804078000040eb003a
:100760000104e000040032000000eb00904a880021
:10077000fd03070010c0b300000006000080fb006e
:1007800081b92000614078000040e80000000600c8
:100790000000eb00305d8800105d8800205d88005f
:1007a00000000600881f78000004780018407800d8
:1007b000f2ff07000081fb0088007800e0b920000c
:1007c000220307004f047800000006001e00fa0014
:1007d000881f78000004eb00484b8800a84a880076
:1007e0001000200001002000604a8800714a880043
:1007f000884a8800e6ff070000042000504b88006c
:1008000088e79f00f20f20000fb097008200600081
:10081000002024000080700080b79f0000f02f00af
:100820009fb0970080806000f104b3008280600078
:1008300003f024008180710091b79f00afb0970052
:10084000008060004005b300a0b79f000002eb00ed
:10085000830020007b81570000f824000110200055
:1008600050ff07000002eb00830020007381570057
:1008700080f82400011020004aff0700a0b82000e3
:10088000eb80570007000900b05878008000b100e5
:1008900000fe2f000f004000c2ff07004f04780049
:1008a0000080fa00000006000200fa00108020001c
:1008b0001004e00015003a00414b80000100e00008
:1008c00004003200e0b920002f0307000000eb0015
:1008d000404b8800829620008f80e900e0b920001c
:1008e00008030700414b80000100e00007003400ce
:1008f000504b8000808f500001003400404b880036
:10090000414b80007fb89700770907000080fa000c
:1009100000000600889fbe008a9fbe008c1f7800e2
:100920000004be007d003700614db800624a8000bf
:10093000734a8000804a8000820f5500838f5d00db
:1009400021003900e20f50000f003a00904a800069
:10095000880078000202440002003700b182fb00e8
:1009600005004000848f5000fcff3a00904a880048
:100970008200780008007800870307000000e0008c
:1009800009003a006900370002067800aa4a800090
:100990006095200000004500880078002aff0700cd
:1009a0000c054500aa4a8800604a8000714a800010
:1009b00000044400808454006000b800604a88004d
:1009c000714a88001f003700e20f50000e003a0005
:1009d000904a800088007800090144000200370036
:1009e000b181fb0003004000828f5000fcff3a0001
:1009f000904a88000800be00670307000000e0007e
:100a000009003a0049003700ac4a80006095200098
:100a10000000460009017800880078000aff0700fe
:100a20008c844400a94a8800604a8000714a800092
:100a30000a0550008b8558006a4a88007b4a880066
:100a40008004eb00604a8000714a8000e00f500093
:100a5000e08f580031003a00804a8000e10f5000da
:100a60001400320003003900e20f50002b003a005e
:100a70001f00370010002000804a88006095200089
:100a800010407800e44f500028003e000080fb003a
:100a900031b92000614078000080fb008000eb004d
:100aa000604a8800714a8800e00f5000e08f5800cb
:100ab0001a003a000000eb00804a88001200200073
:100ac00003002000624a8800734a8800a04a880018
:100ad000e7fe07000004e00014003200604a8000d6
:100ae000714a8000e00f5000e08f58000b003a0080
:100af000510307000000e0000c003200904a800023
:100b0000080207000000eb00804a88001000200067
:100b100001002000604a8800714a88000900e00056
:100b200081ff3a0010c0b300010037000040eb0025
:100b30004f0678004f05be004f04be0000000600bf
:100b40007020a800501780007020a900700060007d
:100b50000000e9004f00de00000006000000210058
:100b6000d202b6000000e9004f00de0000000600df
:100b7000881f78005800200008003700d582a9009f
:100b800000a0260081012000c9080700d582a80026
:100b900000402d0001032000c50807000804e900fb
:100ba000e10f4400f5ff3a004f0478000000060012
:100bb0008a44a8008a44ab00feff3200340880005b
:100bc00043088000040178008a44a8008a44ab00ee
:100bd000feff3200340880004108800004007800e5
:100be000020050008380580000000600881f780033
:100bf000d782a800d582a800d182a900e808070002
:100c000080002000800888000ea1ef000e01f8008f
:100c10000c01f90080002800800888000004eb0027
:100c200010003700db080700f0ff2300000064001d
:100c30000804e8000000e0000a003a00010021007a
:100c4000a0168000808060008100e900cf08de00ef
:100c5000cc08dd00a016800000c0a100008070005c
:100c6000a016880060588000e10f5000edff3600ac
:100c7000d582a80000fc2f004827b60008022000fb
:100c8000cbff070082562c00f3ff2f00000141002c
:100c900081814900047d2000840f5100e08f5900bc
:100ca000f7ff3e00f2e72300820f5000e08f58006c
:100cb00007003e00403a8000f003b200ff0f5000f2
:100cc00014003200403a80000040e8000b0037007a
:100cd00002e82300820f5000e08f58000d00320020
:100ce000403a8000f003b20001022000810f500062
:100cf00008003200403a8000f043b000f003b20038
:100d000001fc2f00443a8000848060008100700064
:100d1000413a88000804e900d9ff3a001021ef00a9
:100d20009608070000802400811e2000600807004c
:100d30004f0478000000060025010700f1c3b3004e
:100d4000814f500004003600a8ff0700403a8000a1
:100d5000f043b20021013700f003b20001fc2f0084
:100d6000423a80008280600081007000413a880031
:100d70000000060079ff07000004e00003003a00cd
:100d8000edff07000050040000000000d382ab001c
:100d9000feff3200d782a800d582a800d182a90028
:100da00067ff07000004e000010032003301070084
:100db000e1ff07006eff0700790807000100370018
:100dc000740807000002200061588000808f5000e6
:100dd000fbff3a00c04080000000e000f8ff320056
:100de0007afe0700120037006a08070001c4b3004a
:100df000a0b42000b50707008080fb00a0b420004d
:100e0000c4fe07000004e00008003a009424ef004c
:100e10008c24ef000000eb00605888000080240064
:100e2000811e200022080700e6ff37009efe070013
:100e30000002200061588000808f5000e1ff3a00de
:100e4000c04080000000e000e7ff3a00ddff37000f
:020000040000fa
:100e50000200fa00881f7800c0b3200011c0b30060
:100e600090cf10000f003a000080e9001040780099
:100e70007f4060000b003a00205880000070a00006
:100e800020588800b0b3200032c0b300904f11004a
:100e900002003a0010002000010037000000eb00c3
:100ea00040588800c0b320001004e0009e003a00c3
:100eb0000080e900104078007f406000e24f500061
:100ec00099003a00e0b3200010417800ef40610043
:100ed0009500320010417800ef4061008180fb00f6
:100ee000e28f500090003c00010220006258800018
:100ef000810f51008c003a00215880000170a00041
:100f0000215888001004e0000c00350010417800e2
:100f1000ef4061008180fb008180400062b12000d1
:100f200062817800e2bf9f00104078006f4060004f
:100f30000080fb0011b320000b0037001041780047
:100f4000ef4061008180fb0081804000c2b1200041
:100f500062817800e2bf9f00104078006f4060001f
:100f60000080fb00e1b22000614478000808a30083
:100f700004003a004ff897000024a100c0ff9f0032
:100f800003003700cff897000124a000c1ff9f00a5
:100f9000e0b320001004e0000600350010407800a7
:100fa0006f4060000080fb000000400061b1200045
:100fb00005003700104078006f4060000080fb00a3
:100fc00000004000c1b120006fb997008230780066
:100fd000b0b3200031c0b30090cf100018003a0029
:100fe0006fb897001000e0000f003d00e0b3200054
:100ff0001004e0000500350010407800ef4060006c
:101000008180fb0012b320000400370010407800fc
:10101000ef4060008180fb00e2b2200062c07800f7
:101020000010a00000f178006fb897001041900008
:1010300041c8b30081407100114098003a00370068
:101040004ff997000224a200c2ff9f00efb897005b
:10105000114090001100e00007003d000074a10065
:101060000064a00090409800220020005000200062
:1010700081070700020037000064a000904098003c
:101080004ff897000024a200c0ff9f000818a3009b
:1010900003003a006fb897001000e00017003d0011
:1010a000e0b320001004e000050035001040780097
:1010b000ef4060008180fb0012b320000400370085
:1010c00010407800ef4060008180fb00e2b2200019
:1010d00062c078000010a10000f17800efb897001e
:1010e00011409000b043b2009040980022002000d0
:1010f0005000200060070700030037009040900078
:10110000b143b20011409800e0b3200010407800d5
:101110006f4060000080fb0000004000a14a2000fa
:10112000010040001014a1004f0478000080fa0074
:0411300000000600b5
:020000040000fa
:10113400f000400000c1eb00b04f110003003a0082
:10114400810f5000fbff3a0010000500000005006d
:10115400889fbe008a1f78000005780008402a0096
:10116400290020000800be00fb020700004d7800a3
:101174004800de00104598000a85e8006204440037
:10118400e0844c0000412a0021002000800f54001c
:10119400818f5c00f3ff3a004f0578004f04be00d6
:1011a400000006001e00fa007e80570021c0b30034
:1011b40001587800e6ff07007e80570078fd07009d
:1011c40010c0b3000080fa000000060000412a00ad
:1011d40021002000e0023700004178000281fb007a
:1011e4008001eb0004f02f00f5ff2f0004017100d3
:1011f4008581710000412a0021002000950207002a
:1012040000f0a7000000ea000000ea004f00de0042
:10121400000006001000fa00881f78007280570052
:10122400cbff070072805700c1ff070080407800a1
:1012340010c0b3000104e0000c003a00e3ff070013
:101244000044780000402a00210020006b020700bf
:101254008000eb000000e00003003200084078004a
:10126400ddff07008080fb00014078004f04780018
:101274000080fa000000060000402a00210020003f
:101284005e02070000f0a7000000ea000000ea0088
:101294004f00de0000000600889fbe008a1f780011
:1012a40000057800dbff0700804078000040eb0079
:1012b4000104e0001700320008402a002900200041
:1012c4006011b8001a80fb009a409000c808dd0045
:1012d400008170000a85e8000800be005d02070076
:1012e4000000e00008003200e0402a002100200055
:1012f400800f5400818f5c000500320062044400ba
:10130400e0844c00eeff37000040eb0001003700a2
:1013140010c0b3004f0578004f04be000000060063
:101324001e00fa0041c0b300a1e79f00c800dd0021
:10133400f20f20009fb1970002816100010171004a
:1013440092b79f004800de0001f02f002fb19700f4
:101354008100610001007000a0b79f007e805700eb
:101364000ffd07000080fa00000006000000fe00e8
:10137400000006001e00fa0011c0b300a1e79f00a0
:1013840082002000c19e2000a0fc070000f0a700fe
:101394000000ea000000e9004f00de004800dd0024
:1013a4009fb097000180a1008080700091b79f00da
:1013b4007e805700fafc07000080fa000000060057
:1013c40000000600c001900010019000828f5100bf
:1013d4000d00320030019000900178008171790095
:1013e4008200e8003100980010019000828f5000c4
:1013f40002003a008000eb003100980068004000d1
:10140400110020001088400000000600a000900099
:101414001001780062c178008100e8002100980082
:1014240090019000838f500002003a008000eb008e
:1014340021009800680040008080eb001088400084
:101444000240780000000600889fbe008a9fbe000c
:101454000004780081057800820478000900e00027
:1014640024003200480090001805900000804400d9
:101474008a0f50001f003c00b80090000181440016
:10148400188040008a0f51000b003c0009017800cd
:101494008b0078006bfc070038009000008044004b
:1014a4003004980098009000810f50000f003a001b
:1014b4000000eb000c003700010555000a0178001c
:1014c4008b0078005ffc0700180078000a81540044
:1014d4008a8045005bfc0700b8009000180090006b
:1014e4000080500009004000300498006804440063
:1014f400188c44004f05be004f04be0000000600d7
:10150400a001900090884100c00090000100e0001c
:1015140002003a000109780000000600b0009000c3
:10152400838f500003003c0010009000030950001a
:1015340000000600038950000000060040039000ec
:10154400868f50000100340086007800200390004c
:10155400100943001001900086834000828f5300dd
:10156400050034000603510086097800100a78004b
:10157400868a50000000060081097800800aeb008a
:101584000000060020019000028140002200980023
:10159400e80140008100ea00938940009000900037
:1015a400810f510002003500010151002200980012
:1015b400000006000800fa00889fbe008a9fbe0053
:1015c400000478000105780082047800ea8257005c
:1015d4006e825700ec815700708157000800be00ee
:1015e400d6ff0700afbd97000b00e00004003200f7
:1015f4000b0178008fb897000a00780011fc0700ef
:101604003fb997000200e000030032000b004500e0
:101614009fb897000bfc07000800be00d9ff070025
:101624004f05be004f04be000080fa000000060013
:10163400889fbe008a9fbe00805180000000e000a9
:1016440003003200e10f500041003a000f00370060
:1016540082002000619f200040a32000ebfb0700d4
:101664008000eb000000e0003a003a0030a32000c4
:101674000148780041ccb30020a320000148780041
:10168400110020008151880032003700a8518000e9
:10169400b951800008007800f007b2008000eb0028
:1016a4002c003a0004002b00f5ff2f000802420032
:1016b40089824a00f23f250023002000820f520055
:1016c400838f5a0023003e00c2578000d357800006
:1016d400e10f4100e08f490003003200820f540003
:1016e400838f5c001b00390004c02f0008026200d5
:1016f40089007800040078000005be00820f5500c0
:10170400838f5d00070032000a00be003b01070022
:101714008000eb000000e0000e003200ca57880091
:10172400db57880082a320000800be005e0107008a
:101734008000eb000000e0000600320030a320002f
:101744000048eb0041ccb30020a3200001487800fe
:1017540011002000010078004f05be004f04be00b8
:101764000000060030a320000048eb0081c0b30055
:1017740020a32000014878000080eb008080eb006b
:10178400c0578800d15788000000eb0080518800c2
:1017940000000600889fbe008a9fbe008c9fbe008a
:1017a40000057800010478001900370020a3200008
:1017b400904578000b80fb0088047800800f54006b
:1017c40001003600800478003ca320009c46780089
:1017d4008d80fb0040a320000080400009017800b8
:1017e4008a00780097fb07000dce440089c5550098
:1017f40020a320000b48780003003a008cff070068
:101804000000e00006003200090545000904540008
:101814000800e000e5ff3a00100020000100370056
:101824000000eb004f06be004f05be004f04be0093
:10183400000006000000eb0081518000e18f5000a1
:1018440006003a0040ccb30021a3200011406800f8
:101854000080fb000000e9004f00de0000000600ed
:020000040000fa
:10186400881f7800202480006800600004003a008b
:101874009424ef008c24ef00605888007700370030
:10188400605880000000e0000f003a009424ef004c
:101894008c24ef002000200030258800a824ef00cd
:1018a4008644a900f0092000802488006024880070
:1018b400010037009404a8009404ab00fdff32003b
:1018c400100020006058880060588000e10f50002c
:1018d40008003a0094c4ab0006003a008aa4ef0062
:1018e4008c24ef008c04a8008c84a8002000200025
:1018f400605888008084ab00050032008284ab000d
:101904000300320000012000002488008005070045
:101914008824ab0051003a008a04ab00070032006f
:101924008c04ab00050032001101070040002000c8
:101934006058880010002000502488008a84ab007e
:10194400050032008c84ab00030032007a050700e6
:1019540000012000502488008a44ab0008003200b3
:101964008c44ab0004003200120020008000eb0025
:10197400300720003f050700400020005024880065
:101984008ae4ab00030032008ce4ab0001003200b7
:10199400260507008a24ab00090032008c24ab0022
:1019a40007003200120020008000eb00f0ff270047
:1019b400300507008ea4ef0020002000502488008a
:1019c40060588000e30f5000240036008c64ab00a4
:1019d4002200320048c0b3008a64ab001f0032000a
:1019e40091248000a0b22000014878000180fb000f
:1019f4004400de0000417800b3b220008049780042
:101a040080002000502488000280fb0013b32000d3
:101a14000138a30001003200e3b2200063427800e1
:101a2400e14062000104a2000404a10081407200ac
:101a3400817178000204e00002003a003c040700cf
:101a4400040037000001eb00a1b2200020072000b1
:101a5400080507000844e900dfff3a008ec0a9002a
:081a64004f04780000000600a9
:020000040000fa
:101a6c00f60900000800000082000000494f490000
:101a7c004f01000000000000300a0000cc00000004
:101a8c00800000008a0b00001e0000008200000095
:101a9c00494f49004f30300033300000040800003b
:101aac0010041c000110000002006c0009800000f2
:101abc0000000000000000004c090000a000000025
:101acc0080000000ec0900000a0000008200000009
:101adc00424f4f0054303000303100000000000005
:101aec004a0b00004000000080000000fc0a0000cf
:101afc004e00000080000000000a000030000000d2
:101b0c008000000000080000ae0000008000000013
:101b1c00ae0800009e0000008200000012010000d0
:101b2c000202000000084f001b0800000002010028
:101b3c0002000100090243000002010000c0fa008b
:101b4c00090400000001020002010000052400004d
:101b5c001001040024020200052406000001050007
:101b6c0024010000010705008103080000020900a0
:101b7c0004010000020a0000000007000502020038
:101b8c004000000007058200024000000000040035
:101b9c000309040032034900004f000049004f00c4
:101bac00002000004f007000006500006e002d004a
:101bbc00005300006f0075000072000063006500a8
:101bcc000020000050007200006f00006a006500e9
:101bdc000063000074000a00034900004f00490034
:101bec00004f0000c0080400090809003a09000071
:041bfc0000000000e5
:020000040000fa
:101c000022042400023b88000181fb00a20288001c
:101c10000081eb000208bb000500fc00500520001d
:101c2000303b8800a00a2000303b880061e7a80014
:101c300000000000000000006007e200feff350029
:101c400061c7a900000022006007b6000000e9009b
:101c50004f00de000000060034002400043b880032
:101c6000a10288000208bb000388bb000500fc003d
:101c700050052000303b8800a00a2000303b88003f
:101c800061e7a80000000000000000006007e2001b
:101c9000feff350061c7a900000022006007b60002
:101ca0000000e9004f00de0000000600881f7800f9
:101cb0000003be0010002400003b8800a70288003b
:101cc0008000eb009281fb0000f02f000404600014
:101cd00088817100124490004844dd00f30fb20087
:101ce00003027400a24190008381fb0005006000a4
:101cf00080827100e3804000060078000408bb0089
:101d00000588bb000083e80063014100000c20004f
:101d1000808f5000ebff3a000500fc0050052000ca
:101d2000303b8800a00a2000303b880061e7a80013
:101d300000000000000000006007e200feff350028
:101d400061c7a900000022006007b6000000e9009a
:101d50004f00de004f04780000000600a10288005a
:101d6000000178009281ba00830078001200ba0066
:041d70000000060069
:020000040000fa
:101d74009ec0a9008ea4ef008aa4ef00aa24ef005d
:101d8400ac24ef00ae24ef002000200030258800b2
:101d9400a824ef008644a900f009200080248800cc
:101da400602488008804a80000a020004800de0009
:101db400c02488000000eb00c200dd0002a0200067
:101dc400810041008008eb00b11078000000e800b9
:101dd400ec0f5000f8ff3a009424a8009624ef007a
:101de40094a4a9009424a90040b020009041780054
:101df40010b12000104178000000e8001080fb00c2
:101e040031b120009180fb00c808dd008100700022
:101e14000500370080002000502488008041eb003a
:101e2400034178008000eb005024800068006000cb
:101e3400f8ff3a0044b02000034a780013b12000b0
:101e4400824978000301e80001497800c808de00ef
:101e54000381e8000149780011002000b15988008d
:101e6400c159880000588800e057880050588800fd
:101e7400a4b1200043b12000d2b2200001b320005d
:101e8400002aeb008029eb000069eb008068eb007e
:101e94000040e800e34f5000f9ff3a0080a0200022
:101ea400e0588800d000200050258800a0b320000e
:101eb4001050880081c0b30000a0200001487800c1
:101ec40041c8b3000000e80001487800e0b02000f9
:101ed4000048eb000000eb0060588800000006009a
:020000040000fa
:101ee400a0b3200010417800ff406100e1cf500012
:101ef40053003a0002c6b3009040610000c2b30030
:101f040080cf50004e003a00e0b320001004e000ff
:101f14000300320011c0b30090cf100048003a0013
:101f2400b0b320001040780001c2b300814f5000cc
:101f34001a00320005003e000004e0000a003200ee
:101f4400e14f50003e003a000e00370011c2b300ca
:101f5400814f5000290032008140e800814f500039
:101f640037003a002d003700608a2000105888009e
:101f74008000200030588800205880001008b300ea
:101f840004003700608a2000105888002058800020
:101f94000070a000205888000000060000b4200053
:101fa4009080fb000000e8001080fb004800dd008a
:101fb4000080700021b12000804878004800de00d5
:101fc4008100e8008048780000812000e48050000f
:101fd400804878004800de008100e80080487800ee
:101fe400648040000048eb00658040000048eb003e
:101ff400640050001074a00000000600008120005e
:1020040010588800700020003058880011ccb300ac
:1020140040b020000148780000000600008a20003b
:10202400c1b32000114878000045800061006000c1
:10203400c0408800205880000070a000205888000c
:042044000000060092
:020000040000fa
:10204800f04480000000e000020032001000e000d0
:102058004f0035001080200031c0b30090cf100031
:1020680001003a000048eb00104078000004e0004e
:1020780047003200e24f500009003a008041eb006f
:102088000001eb0011c0b300cc020700f044880047
:1020980031c0b3001080200001487800000006001d
:1020a800e14f50003a003a00428020001240780088
:1020b8008041780001c4b300814f50000100360010
:1020c8008141780003495000a0852000d044880051
:1020d800508020001004e000020032000340780025
:1020e80019003700034078000a00370012408000ca
:1020f800d144800092487800d14480008100e800f3
:10210800d1448800114080008100e8001140880017
:102118000040e9000004e000f4ff3a000c0037003a
:1021280012408000d144800092487800d144800059
:102138008100e800d1448800114080008100e80057
:10214800114088000040e9000004e000f4ff3a0074
:10215800408020001004e00008003a0010802000b1
:1021680001c4b30081cf510002003a0021c0b3007e
:102178000100370031c0b30001487800a285200073
:1021880011c0b30020c0b3008c020700f0448800df
:04219800000006003d
:020000040000fa
:10219c00105980009040780020b120001081fb0085
:1021ac000000e8001080fb004800dd00000071001a
:1021bc000181fb00800f5100010036008040780047
:1021cc000181fb000200500022b120000049780080
:1021dc004800de000201e800004978000000eb0036
:1021ec000c003700f4b020009482fb008401e8005e
:1021fc001381fb004811dd000281720025b4200020
:10220c0065597800024a78004811de00824978004e
:10221c000000e80080cf5000f2ff3e0020b120000b
:10222c001080fb0031b120009180fb00c808dd005c
:10223c0081007000205980000d00320081c0b30075
:10224c00014878002059800021b42000110098002a
:10225c001159800011e8a30002003a0081ccb300b0
:10226c000100370081c8b30011409800000006003f
:10227c0081c0b3000148780020598000a1b3200030
:10228c001100980041c8b3001140980040b12000e3
:10229c009080fb000000e8001080fb004800dd008f
:1022ac0000807000010032000000010010b120001d
:1022bc001074a100f05780000000e00001003a000b
:0822cc00aa0107000000060052
:020000040000fa
:1022d40020b420000048eb008000e8008048eb00b8
:1022e400a1b3200091407800ffc060008180fb0012
:1022f400e18f50000d003200e28f50000f003200d9
:102304000100e00026003a00215880000170a0007e
:10231400215888001004a00041588000e18f50002b
:102324001f003a001014a0001d0037002058800040
:102334000070a00020588800190037002058800041
:102344000070a00020588800e0b320001004e000d2
:1023540006003500104078006f4060000080fb00ec
:102364000000400061b120000500370010407800f3
:102374006f4060000080fb0000004000c1b12000fd
:10238400e10078000040280091006000808f500038
:1023940003003a0011c0b30020b4200001487800c3
:1023a4000008200041b02000110060000800320045
:1023b40020b4200010588800205880000000a0009d
:1023c4002058880021c0b30060b020000148780084
:0423d40000000600ff
:020000040000fa
:1023d80094a4a9000008200041b02000110060006a
:1023e8001a003a0010b120001004e0000b003d0074
:1023f80021c0b30070b2200001487800e057800087
:102408000000e00001003a007e0107000000eb0038
:10241800c0598800b05988000000060081c0b30088
:10242800205980000148780020598000a1b320007d
:1024380011009800c1c8b30011409800e8c05000ce
:10244800e05880001140980000000600a1b3200069
:1024580070b220001104e0000d003d0011c0b3006f
:1024680001487800005880000000e00001003a00b0
:10247800640107000000eb00c0598800b0598800cb
:10248800f05780000000e00011003a0038013700e2
:1024980022c0b3000248780082c0b30020598000ef
:1024a80002487800205980001100980041c8b30004
:1024b800114098000000eb00c0598800b05988000e
:1024c800f05780000000e00001003a0028010700f2
:0424d80000000600fa
:020000040000fa
:1024dc00a0b3200001c6b30010c0600039003a0060
:1024ec00b0b320001080fb008000eb00eb0f50001d
:1024fc00e08f580033003e000060010016003700ea
:10250c00160037002f003700140037002d0037005d
:10251c00060037000b003700260037000b00370091
:10252c00090037000e0037001900370020588000d2
:10253c000070a0002058880080002000605888009f
:10254c000000060058003700b6003700e0b020004d
:10255c0010588800070037005bff370039fa370046
:10256c00e0b320001081fb0021b2200020b020003d
:10257c00010841002058800012c0b30061b0200057
:10258c00824878001008b30020588800000006002c
:10259c00205880000070a00020588800e0b3200074
:1025ac009080fb0020b22000c2b320009270780013
:1025bc00000006000001eb008000eb002000200072
:0825cc002a02070000000600ce
:020000040000fa
:1025d400881f7800c0b12000e15880001104780001
:1025e4004e44de00614464001024a2006058800060
:1025f400e80f500008003a00c0b320001080fb0030
:10260400b0248800000120009604e20001003a0092
:10261400400020006058880070b2200011c0b30050
:1026240090cf100011003a0021b42000e05880003f
:10263400110098004e000700e058800061b22000ad
:1026440022c0b300914f110002003a0041c8b30008
:102654000400370081ccb3000804e000010032001c
:1026640081c8b300114098000f00370010b120005a
:102674001004e0000a003d00630040009080fb006d
:102684000000e8001080fb004800dd0000807000be
:10269400010032000000010010b120001074a100fc
:1026a40070b220000048eb004f04780000000600e0
:020000040000fa
:1026b40000c8b300a1b32000914f10002b003a00d2
:1026c40040b0200001ccb30001487800d1b3200011
:1026d40091407800e2cf500008003200e3cf500070
:1026e40013003200e1cf50001f003a00e08a2000be
:1026f400105888002001200017003700c0b32000c4
:102704001080fb000000400041942000610078002c
:102714001058880061b02000204190008248780061
:102724008100e800304090008048780000000600f6
:10273400c1b3200022c0b300914f110008003e0035
:102744001180fb00000040006194200061007800cb
:10275400105888001080fb003058880000000600e4
:102764000048eb00000006000048eb0000000600f3
:020000040000fa
:102774003158800080c0b300e78f50000b003e004a
:102784000140780061b22000114178000204e000a9
:1027940002003a0012c0b30003003700e14f5100b9
:1027a40002003a0022c0b3008248780061b02000e1
:1027b4000081fb0091081100e158800080487800f6
:1027c40021b420004159880041b0200091007800d4
:1027d400e1806000080032001100370012588000c8
:1027e40041598000925878004159880021b0200056
:1027f4008208e8000040e9000004e000f7ff3a0026
:102804000000060012588000415980009258780058
:102814004159880021b020008208e8000040e90006
:0c2824000004e000f7ff3a00000006008e
:020000040000fa
:10283000205880000070a00020588800ac24ef00d1
:10284000ae24ef000000eb00c200dd0002a020007b
:10285000810041008008eb00b11078000000e80022
:10286000ec0f5000f8ff3a009424a800d0b22000ea
:1028700001b32000630140000068eb008068eb00ba
:10288000820f5000fcff3a009424a90080a0200091
:10289000e0588800680050001059880020598800ce
:1028a000c0b3200010407800e1b0200080487800dc
:1028b0000004e00002003a0000012000040037009c
:1028c00012002000100020006b0107000002200011
:0828d0006058880000000600ba
:020000040000fa
:1028d8000041eb0060b22000024878000000eb00e5
:1028e800f057880000588800e05788006059880031
:1028f80071b2200080487800c1b120001102780030
:10290800944190000374a100134298001124a2007e
:1029180011027800944190000374a10013429800ba
:102928001124a20023598000934090000174a10053
:102938009141980041b020008248780030588800c2
:1029480010b12000024878000000e8000248780032
:102958000000e80002487800defe07000001eb00f6
:102968008000eb00300020004101070098fe37008e
:020000040000fa
:10297800b05980000000e00021003a00100020005b
:10298800b0598800c15980000100e0001c003a00dd
:10299800c059880071b2200091407800e2cf500001
:1029a80006003a00e05880000048eb0081ccb300f4
:1029b800e05880001140980000000600e1cf500068
:1029c8000f003a0082c0b300115980008248780095
:1029d80013598000a1b320009101980044c8b300a6
:1029e8009441980060598800205980000248780076
:1029f800205980001100980001c8b30011409800c8
:042a080000000600c4
:020000040000fa
:102a0c000000eb0000588800e057880070b22000ee
:102a1c0021c0b30090cf100008003a0081c0b30071
:102a2c0020598000014878002059800021b42000f2
:102a3c001100980081ccb3001400370001b42000c1
:102a4c001181fb000100e8009081fb00c819dd003a
:102a5c008301710062b02000928f5100050031009b
:102a6c009180fb001080fb004800dd0000807000ae
:102a7c00305888003cff070021b42000e05880004b
:102a8c001100980081ccb300e058800011409800f0
:042a9c000000060030
:020000040000fa
:102aa00011028000010eb2000000eb002000320095
:102ab000700680000080a0000090a10000a0a1008e
:102ac0007006880083248000622480001124800026
:102ad000f40480004622de00614262009024ef0090
:102ae0008c24ef008224ef008ec0a9008284a8000d
:102af00000012000002488009ec0a8000040fe00c5
:102b0000f08f2f00ce20b600610262004622dd0069
:102b1000f00480000060a10000007200f004880052
:102b2000832488006224880011248800100020007b
:042b3000000006009b
:020000040000fa
:102b3400a0b220001080fb00800078000120a100da
:102b44000100e0001a003a00c00fb20001a020000a
:102b540001004000105988002059880041b220002b
:102b64001124a20002c023001001610001402300cf
:102b7400810f51000d003a00a1b32000010178003b
:102b8400e8814000100290009458780010029000f0
:102b94000402e80014009800838f5000f9ff3a0003
:102ba40010598000120098004aff3700780037005f
:102bb400e88f500001003a0085fe0700000006007f
:020000040000fa
:102bc4000082fb000104e000030032000402420022
:102bd400c5b12000020037000402420065b12000a4
:102be40065027a008002eb000400e0001400320069
:102bf40012029800034a7800144190000244b20083
:102c0400124298009441900082c8b30002c171003e
:102c1400124298000080fb000104e000030032002f
:102c240000004000c1b12000020037000000400055
:102c340061b12000010040001024a2008402780049
:082c4400050078000000060005
:020000040000fa
:102c4c0000b02400010020008040880091408800e2
:102c5c000040eb0041812000804878008100e800b2
:102c6c008048780082c0b3008100e8008248780078
:102c7c00018020008048780051c1b30010c0b3001f
:102c8c002b000700d1c1b30020c0b30028000700ff
:102c9c0003c4b300a28120008040eb0020c0b3002d
:102cac00c5ff0700e04488000000eb00f0448800fa
:102cbc001180200080487800c04088000000060089
:020000040000fa
:102ccc00028020000049eb00e24480000200e0009a
:102cdc00020032001200e0001200350092cf5000ca
:102cec000600360092407800040037008381fb0018
:102cfc00a481200064f079001249e80002802000d1
:102d0c009241780081cf5100f8ff390003c4b30021
:102d1c00a28120008040eb0020c0b300a6ff07007a
:102d2c00e04488000080200010407800000006007d
:020000040000fa
:102d3c00889fbe008a1f7800004478008144780088
:102d4c000985fb000a38a300030032008040eb0029
:102d5c0008407800210007000a28a3000300320075
:102d6c0011c0b300084078001c0007000884fb0069
:102d7c0008044400a04a200009707c004f0578002c
:082d8c004f04be000000060028
:020000040000fa
:102d940070b2200021c0b30090cf100001003a00af
:102da400fdfc37000048eb00605980000000e000a3
:102db40009003a0081c0b30020598000014878001e
:102dc40020598000a1b3200011009800c1c8b300ad
:102dd40011409800000006000000eb0060598800d4
:042de40000000600e5
:020000040000fa
:102de8000080fb000181fb00000040000001410061
:102df8004311dd0003a020000301410012f0a100ef
:102e08000104e00002003a0061b12000010037002f
:102e1800c1b120008230780012e0a10064014100b5
:082e280012e0a000000006000a
:020000040000fa
:102e3000aa24ab000d003200105980001041900010
:102e400001c8b300814f510007003a00e1588000eb
:102e50001141900041c8b300814f510002003a0077
:102e6000e8c0400011409800aa24a90000082000f2
:082e7000502488000000060058
:020000040000fa
:102e7800e30f50000a00320051072000810f500074
:102e880003003200e10f500006003a00020037004c
:102e98004300070003003700430007000100370024
:082ea8004000070010000500c6
:020000040000fa
:102eb000f03fb1000180b10006003500ee030900cb
:102ec00000000000403fb1000180b100fbff3d0069
:102ed0001000b000203fb000020035000080090063
:082ee0000000000000000600e4
:020000040000fa
:102ee800128020001204e00007003a001040880019
:102ef800408020000148780010c0b30051802000b5
:0c2f0800804878000049780000000600b6
:020000040000fa
:102f14000000eb00505888000001eb008000eb003b
:102f240040072000d3ff07008284a900000120008d
:082f34000024880000000600e3
:020000040000fa
:102f3c008284a8000001200050248800100020008a
:102f4c00505888000001eb008000eb005007200077
:042f5c00c6ff370075
:020000040000fa
:102f600060588000ff0f5000030036008824ab003b
:0c2f700001003a0034fc070000000600dd
:020000040000fa
:102f7c009424ef008c24ef000000eb0060588800d4
:082f8c008804a9000000060002
:020000040000fa
:0c2f940033fa0700f1ff07000000050001
:020000040000fa
:082fa00076e0a80073fb370086
:020000040000fa
:042fa800bdfe370033
:020000040000fa
:042fac00cdfb370022
:020000040000fa
:042fb00026ff3700c1
:020000040000fa
:109f000053500000524b000030300000323000004f
:109f1000494f0000494f000030340000303200004b
:020000040000fa
:020000040005f5
:0457f400131c000082
:020000040000fa
:020000040005f5
:0457f8009f09000005
:020000040000fa
:020000040005f5
:0457fc007f3e0000ec
:020000040000fa
:10a000001051040000000000646a04000000000019
:10a01000646a040000000000646a0400000000009c
:10a02000646a040000000000646a0400000000008c
:10a03000646a04000000000020b404000000000076
:10a04000b07d040000000000646a0400000000000d
:10a050004ab4040000000000de7d0400000000009f
:10a060003cb904000000000046a804000000000005
:10a07000646a0400000000005ab004000000000000
:10a08000c69d0400000000001a9e040000000000ad
:10a0900072ab040000000000646a040000000000cd
:10a0a000baa5040000000000646a0400000000007b
:10a0b000ded3040000000000646a04000000000019
:10a0c0001cb504000000000046b5040000000000bc
:10a0d0000c7e0400000000003a7e04000000000036
:10a0e000646a040000000000deb304000000000009
:10a0f000646a040000000000789e04000000000074
:10a10000d09e040000000000646a0400000000000b
:10a1100084b004000000000074b4040000000000db
:10a120009eb4040000000000c8b404000000000059
:10a13000f2b4040000000000687e0400000000008b
:10a14000967e040000000000c47e040000000000b1
:10a15000f27e040000000000646a040000000000b9
:10a16000646a040000000000e4a504000000000090
:10a17000646a040000000000646a0400000000003b
:10a18000646a040000000000646a0400000000002b
:10a19000646a040000000000dea904000000000062
:10a1a000646a040000000000646a0400000000000b
:10a1b000646a040000000000309f040000000000fa
:10a1c000889f040000000000646a04000000000092
:10a1d0000ea6040000000000646a040000000000f5
:10a1e000e89f04000000000040a004000000000000
:10a1f000646a040000000000aeb00400000000002b
:10a20000207f04000000000070b504000000000082
:10a21000646a04000000000094660400000000006e
:020000040000fa
:10a220004f1b27000eff27000e01880000000000d2
:10a23000000020000000e0000200320000012000c9
:10a24000200288000c000700a0d82b00010020008d
:10a250000f000700000020000000e00002003200b4
:10a260000000020000000000f6ec02000000000008
:10a270000040da000000fe00e0bc20000000e0002a
:10a28000020032000020200090018800000006003b
:10a29000a1028800800078000000eb001a0037005f
:10a2a000e280400054a0b4009101ba00e280400076
:10a2b00054a0b4009102ba00e280400054a0b4005f
:10a2c0000002eb00472bde00f507b200a601880074
:10a2d000602ce10008003a000049eb000201e800b0
:10a2e000020039003420ec0002f0a0008301e900f4
:10a2f000f9ff3e00040037006128e1000100320050
:10a300000082eb00040007001101ba000200e00027
:10a31000e3ff3a000000060004d0a300e20f49006a
:10a320001c003900810278003549ba000201e800ba
:10a33000020039003420ec0002f0a0008301e900a3
:10a340000f0032002549ba000201e800020039007e
:10a350003420ec0002f0a0008301e9000800320084
:10a360000400e0000600320015c9ba000201e8004e
:10a37000020039003420ec0002f0a0008301e90063
:10a380008180e80054a0b4000300e000e2ff3a003e
:10a39000000006009102ba00055978008301e90027
:10a3a000f7ff3200c82ade00055978008301e90072
:10a3b000f3ff32000400e000f1ff320011d9ba00cf
:10a3c000eeff3700d8ec040000000000222e04004d
:10a3d00001000000540d040001000000b42f04002f
:10a3e00001000000c627040001000000b82e040090
:10a3f00001000000c02f040001000000bc2f040079
:10a4000001000000b82f0400010000003e300400ed
:10a41000010000003c300400010000001ae70400c5
:10a4200000000000c62c040001000000f4eb040052
:10a4300000000000be2e040001000000d42c040027
:10a4400001000000602d0400010000002c2e04001b
:10a4500001000000702e04000100000086200400ae
:10a4600001000000c42f040001000000403004007f
:10a47000010000004630040001000000762c0400ba
:10a4800001000000c42e040001000000c82f0400d9
:10a4900001000000782e0400010000004430040098
:10a4a00001000000d02f0400010000004230040031
:10a4b00001000000cc2f0400010000005e2b04000e
:10a4c00001000000a2ff0400000000006c2d040049
:10a4d00001000000e22c040001000000362e040000
:10a4e000010000004a30040001000000ca2e0400f0
:10a4f00001000000702b0400010000004c3004003b
:10a500000100000048300400010000003a0404008b
:10a51000010000001426040001000000361d0400a4
:10a520000100000054f204000000000016220400a4
:10a53000010000005a300400010000005c300400fb
:10a5400001000000822a04000100000062300400c3
:10a55000010000006430040001000000262804000f
:10a560000100000024300400010000002830040035
:10a5700001000000262504000100000066300400f0
:10a5800001000000962a04000100000010010400f0
:10a5900001000000c0f5040000000000f8e3040022
:10a5a000000000005c0c04000100000078050400bd
:10a5b00001000000cc03040001000000ec230400b3
:10a5c00001000000522d040001000000921404005c
:10a5d000010000004a170400010000005c20040094
:10a5e000010000006a300400010000006c3004002b
:10a5f00001000000881f040001000000181504007d
:10a6000001000000d8260400010000005c1f0400c7
:10a61000010000008a11040001000000bc260400b3
:10a6200001000000ca0f0400010000004e560400a3
:10a63000000000007a560400000000001a5a0400ce
:10a640000000000058640400000000000000040046
:10a65000000000000a00fa0011002000b1bf9f00b6
:10a66000c0bf9f006a805700ad0807004fb8970031
:10a670000080fa00000006000a00fa00e20f500015
:10a6800020003e00805d8300e10f50000600320094
:10a6900080232000452320002323200004232000c2
:10a6a0000000e00004003a00802220004522200043
:10a6b0002322200004222000060028001403630047
:10a6c00003003a000608780000002800140a700011
:10a6d00013a8a30001003a0013a0a0000200780014
:10a6e000050037001388a300feff32003102fb0093
:10a6f000840a78000000e9000000e000f9ff3a0059
:10a700000800370033002000b3bf9f00c0bf9f0088
:10a71000d1bf9f00e2bf9f006a80570082080700f8
:10a720006fb99700020078000080fa000000060070
:10a730000a00fa0051002000b1bf9f00c0bf9f0077
:10a740006a8057007a0807005fb897000080fa0017
:10a7500000000600889fbe0080047800905d8300a2
:10a760000000e00004003a000e0007000084eb0047
:10a770000000e00008003500985d83000900e0005b
:10a780000500320009004400060007000000e00058
:10a7900001003d000084eb00080078004f04be007b
:10a7a00000000600800078000100e00003003a008d
:10a7b00040bb2600905d8b00000005000080eb0090
:10a7c000421b2700828f500002003e00915d8b00eb
:10a7d0000000eb00000006005400f800a102880011
:10a7e0008002780062004000e08048003549ba00ed
:10a7f0003204e0000410a700100032008301e900d9
:10a800000e0032002549ba003204e0000410a7000f
:10a810000a0032008301e900080032000408a300a6
:10a82000eeff320015c9ba003204e0000410a700a0
:10a83000020032008301e900e8ff3a005400f90009
:10a84000000006000000e0002f003200c001780088
:10a85000e38f51002c0036000308a3002a003a00c1
:10a86000315d83000100e00002003200810f5000e2
:10a870000400310011009800305d8b001600370095
:10a8800082007800110190000200e0000200320016
:10a89000800f5100faff39001102780084824000d5
:10a8a000850f500018003900808f520003003a00d5
:10a8b0008308420001007800070037000200e00032
:10a8c0000300320083014000830f51000e00390065
:10a8d0001200980090009800900090000100e000a5
:10a8e0000900320010014000828f500006003a003b
:10a8f00042ba26000009eb0010017800110841005f
:10a90000910090001100980000000600889fbe0092
:10a9100000047800215d83000100e00002003200a5
:10a92000010078000d003700315d830060ba260019
:10a9300004003700910f5400250036000180e80024
:10a94000910090000100e000faff3a00100037008b
:10a95000920f54001e0036000280e80010017800bb
:10a960000200e000faff3a0011017800315d830037
:10a9700060ba260004003700910f5400140036001e
:10a980000180e80091009000828f5000faff3a00a9
:10a99000695d8300888f54000100310088047800cd
:10a9a000090078008d0007000000e00004003a0074
:10a9b000888f5400050032008904d100f5ff37006c
:10a9c000091878009fff0700d2ff37000000eb0056
:10a9d0004f04be0000000600881f7800630440009a
:10a9e0000800a1008000eb00800f54002100360019
:10a9f000e30f540001003e004800200008007800ea
:10aa0000c2ff07008000eb000000e00019003200e8
:10aa1000900078009101780064815100880f510006
:10aa20000300310011019000020878000700370090
:10aa300008814000020878009101900013019800fd
:10aa400010017800110914008808780010017800be
:10aa50000000eb000200e0000400320092019000d0
:10aa60000300e000010032000280e800205d8b005e
:10aa70008180e800010078004f04780000000600a3
:10aa80000900370030427800b1417800834f52000e
:10aa90000400320010002000060031000080eb00ae
:10aaa000000006000201e9000200e000f5ff3a00a4
:10aab0000000eb0000000600800178000200370073
:10aac000b15978000201e9000200e000fcff3a0001
:10aad00000000600800178000200370081597800ec
:10aae0000201e9000200e000fcff3a00000006005d
:10aaf000216c2600430037000001780082017800b5
:10ab00003204e000fdff3a0003017800b141780013
:10ab1000035978000304e000fcff3a00000006003f
:10ab200000017800b1417800035978000304e00087
:10ab3000fcff3a0000000600800078000101780068
:10ab40003104e000fdff3a00000051000000060063
:10ab50000c003700b0417800b1cf51000600320040
:10ab6000100020009542780094cf52000b00310075
:10ab70000080eb00000006000304e0000600320045
:10ab80000201e90001027800800278000200e00082
:10ab9000f0ff3a00000005000000eb000000060096
:10aba0008001780002003700845978000201e90032
:10abb0000200e00006003200314278000404e000a8
:10abc000f9ff3a00020037008059eb000201e9006a
:10abd0000200e000fcff3a00000006008000780060
:10abe0000000eb000100e0000500340001007800e7
:10abf000d8fe0700e10f400001003a000000eb0022
:10ac000000000600889fbe008a1f78000004be0076
:10ac1000c900900069009000808f50000500390045
:10ac2000090078009b0407008080eb000000e00032
:10ac30001600350008457800490090000858780053
:10ac4000c00498001900780000b8a30004003a007e
:10ac500000a8a30007003200ea4f540005003a00a4
:10ac600009007800e60307008080eb000000e000a8
:10ac700006003a0000c02000190060000200320007
:10ac800049009000e00498008a80fb0001007800f1
:10ac90004f0578004f04be0000000600889fbe00ec
:10aca00000047800010078008204780088017800b0
:10acb00009017800110020000c040700890f5000e2
:10acc000010032000004eb00080078004f04be00d1
:10acd000000006000000fa00e88157004fb9970015
:10ace000216c2600e0642500180007000080fa00af
:10acf00000000600881f7800020478000801780030
:10ad00006dff0700080040004f04780000000600b7
:10ad10000000fa00881f780000047800ea815700dc
:10ad20003fb9970088007800a0672500070007005a
:10ad30000000e000020035008040eb000174780064
:10ad40004f0478000080fa00000006006200fa005c
:10ad5000889fbe008a1f7800000578008104780073
:10ad6000020478008300780080f92f000f00400073
:10ad70007a0607009a979f00a9979f000000eb00b2
:10ad8000b09f9f001885fb008a04fb000a05ea00bb
:10ad90004f55de0050022000808f54000d0032001d
:10ada000e10f55000b003a000a0178008800780096
:10adb0002f9097009f91970003000100a0979f009c
:10adc0000000e0008e0032003f9897000000e8008d
:10add000b09f9f000a04440050022000808f54005e
:10ade000040032000900e000e6ff3a003f989700b7
:10adf000840037000000eb00909f9f00809f9f0021
:10ae0000f0979f00e0979f00d0979f00c0979f000a
:10ae10000700370001ab2600010050000000400091
:10ae200041aa260061007800df98970001007000b9
:10ae3000d09f9f0088047800090478003845780086
:10ae40008a00fb0000ab2600060407000000e000bb
:10ae5000f0ff3a00a1c2b300814f55000e003a0046
:10ae6000cf8897000180e900c08f9f001000780014
:10ae7000c09f9f000000e00005003d000000ea00c8
:10ae8000c09f9f005f9897000020a000d09f9f0068
:10ae90000904e8000f003700c09f9f000000eb008e
:10aea00005003700f2ff2700820f50000200320039
:10aeb0006a01b90002804000090478008804780023
:10aec000b900fb000103b100e98f5000f5ff360027
:10aed000c09f9f00e0c2b300984f100002003200f4
:10aee0000080eb0019003700a0c2b300d84f10005b
:10aef00007003a00cf8897000180e900c08f9f00cb
:10af000010007800a09f9f000804e80010003700a0
:10af10000000eb00a09f9f0088007800050037002c
:10af2000f3ff2700830f5000020032006a02b900cd
:10af30000400410001047800880078003101fb0022
:10af40000203b100e90f5100f5ff3600a09f9f00fa
:10af5000984478008900fb00c0a92600c1030700bf
:10af60000000e000020032000804e80001003700a1
:10af70008044eb00c97f9f0080c6b30080cf54009f
:10af800004003a0098cf14000a003a0066405000ce
:10af900006003700c0c6b30080cf540005003a0059
:10afa00098cf140003003a0065404000c07f9f0026
:10afb0000804e8001801fb00e3fb2f008f8141002b
:10afc00081f92f008f804000a0f92f000f00400072
:10afd000100007000000e00009003a00e1fb2f002c
:10afe0008f804000a0f92f000f0040001f050700d0
:10aff0000000e000020035000804e80061ff3700af
:10b000000080eb004f0578004f04be000080fa007e
:10b0100000000600881f7800e4c6b300844f51008a
:10b02000b600320010003c006b425200844f5100c9
:10b030001800320005003c0054c2b300844f510098
:10b04000ee00320084c5b3000f00370044c6b300e1
:10b05000844f51001400320065424200844f510079
:10b06000e9003a001000370004c7b300844f5100d4
:10b07000d50032005300350065424200844f510034
:10b080005000320063424200844f5100de003a001b
:10b090004c0037001181e90082087800f000900030
:10b0a00012417800d600370020629000c5c6b30078
:10b0b000854f520007003a009102780064825200e6
:10b0c000840878001402be004fabde0086037800cf
:10b0d0001100370015c7b300854f5200030032003e
:10b0e000a5c6b300854f520006003a0091027800d1
:10b0f00068825200840878005403be004402be00f7
:10b10000050037001182e9008408780014027800f5
:10b11000cfa2de00612bb9000498be000690be00ed
:10b12000a060900088c6b30088cf50000d003200a8
:10b1300028c6b30088cf500004003a000402fb0088
:10b14000cfa2de00612bb9000800370048c7b3006a
:10b1500088cf5000030032006644440088cf50007e
:10b1600004003a00cfa2de00612bb9000498be00b3
:10b170000690be003002be002003be00f00090002a
:10b18000e00f5200e08f5a00e00f5b00e08f5b00a1
:10b1900002003d00d4c2b300080037000012900046
:10b1a0000418a30002003200b4c2b3000300370049
:10b1b0000408a3004c00320004c2b30084f17800fc
:10b1c0004700370020629000c5c6b300854f52008b
:10b1d00006003a00910278006482520084087800e8
:10b1e0001402be006033b8001100370015c7b30069
:10b1f000854f520003003200a5c6b300854f5200b0
:10b2000006003a00910278006882520084087800b3
:10b210005403be004402be00050037001182e9005d
:10b2200084087800140278008002eb006033b800d4
:10b230000498be000690be00a060900088c6b300cf
:10b2400088cf50000d00320028c6b30088cf5000d0
:10b2500004003a000482fb008002eb006033b80077
:10b260000800370048c7b30088cf50000300320001
:10b270006644440088cf500004003a008002eb008e
:10b280006033b8000498be000690be0080109000a5
:10b290000138a300140032003002be002003be00bb
:10b2a000e00f5200e08f5a00e00f5b00e08f5b0080
:10b2b0000d00320081c7b300814f510003003200fe
:10b2c00081c5b300814f510007003a00f0009000a3
:10b2d00004c3b30084f178008100e80082f17800b3
:10b2e0008100e80071009800f00090008181410029
:10b2f00063009800824078003e003700a061900013
:10b30000c4c6b3001181e90084cf5100220032008d
:10b310000a003c006442520084cf510025003200f4
:10b3200004c2e80084cf510013003200684252008a
:10b3300084cf51001e003a000a00370044c7b30012
:10b3400084cf51001b0032006642420084cf51007e
:10b35000180032006942520084cf510014003a00b4
:10b36000050037008208780092007800405890006d
:10b37000804878002c00370082087800920078001e
:10b38000600a9000cfa2de00612bb9008498be0055
:10b390008690be0024003700820878009200780072
:10b3a00060099000cf91de008288be001e00370049
:10b3b0001181e9008208780092007800600890000e
:10b3c00080087800180037001181e90082087800b1
:10b3d00012027800cfa2de00612bb9000498be00f3
:10b3e0000690be00f000900081814100630098004b
:10b3f00081c7b300ee0207000b003700f000900099
:10b4000082f1780006003700f00090008181410051
:10b410000204e00001003a0052c2b3008249780001
:10b420008100e800710098000000eb004f047800f4
:10b4300000000600889fbe0000047800010078002c
:10b44000820478008801780009017800110020004a
:10b4500026020700890f5000010032000004eb00b3
:10b46000080078004f04be00000006000000fa004b
:10b47000e88157004fb99700216c2600a0a1250054
:10b48000020007000080fa00000006006200fa00d7
:10b49000889fbe008a1f780000057800810478002c
:10b4a000020478008300780080f92f000f0040002c
:10b4b000aa0407009a979f00a9979f000000eb003d
:10b4c000b09f9f001885fb008a04fb000a05ea0074
:10b4d0004f55de0050022000808f54000d003200d6
:10b4e000e10f55000b003a000a017800880078004f
:10b4f0002f9097009f91970003000100a0979f0055
:10b500000000e0008e0032003f9897000000e80045
:10b51000b09f9f000a04440050022000808f540016
:10b52000040032000900e000e6ff3a003f9897006f
:10b53000840037000000eb00909f9f00809f9f00d9
:10b54000f0979f00e0979f00d0979f00c0979f00c3
:10b5500007003700a1ac26000100500000004000a9
:10b56000e1ab260061007800df98970001007000d1
:10b57000d09f9f008804780009047800384578003f
:10b580008a00fb00a0ac2600360207000000e000a5
:10b59000f0ff3a00a1c2b300814f55000e003a00ff
:10b5a000cf8897000180e900c08f9f0010007800cd
:10b5b000c09f9f000000e00005003d000000ea0081
:10b5c000c09f9f005f9897000020a000d09f9f0021
:10b5d0000904e8000f003700c09f9f000000eb0047
:10b5e00005003700f2ff2700820f500002003200f2
:10b5f0006a01b900028040000904780088047800dc
:10b60000b900fb000103b100e98f5000f5ff3600df
:10b61000c09f9f00e0c2b300984f100002003200ac
:10b620000080eb0019003700a0c2b300d84f100013
:10b6300007003a00cf8897000180e900c08f9f0083
:10b6400010007800a09f9f000804e8001000370059
:10b650000000eb00a09f9f008800780005003700e5
:10b66000f3ff2700830f5000020032006a02b90086
:10b670000400410001047800880078003101fb00db
:10b680000203b100e90f5100f5ff3600a09f9f00b3
:10b69000984478008900fb0060ab2600f1010700a8
:10b6a0000000e000020032000804e800010037005a
:10b6b0008044eb00c97f9f0080c6b30080cf540058
:10b6c00004003a0098cf14000a003a006640500087
:10b6d00006003700c0c6b30080cf540005003a0012
:10b6e00098cf140003003a0065404000c07f9f00df
:10b6f0000804e8001801fb00e3fb2f008f814100e4
:10b7000081f92f008f804000a0f92f000f0040002a
:10b71000100007000000e00009003a00e1fb2f00e4
:10b720008f804000a0f92f000f0040004f0307005a
:10b730000000e000020035000804e80061ff370067
:10b740000080eb004f0578004f04be000080fa0037
:10b7500000000600889fbe008a1f78000004780061
:10b76000e0c6b300804f5100c100320015003c001c
:10b770006b405000804f5100240032000a003c0012
:10b7800070405000804f5100fa0032006540400088
:10b79000804f51006800320050c2b300804f51000a
:10b7a0000b013a000701370040c6b300804f51003b
:10b7b0001b00320065404000804f510004013a00f8
:10b7c0001700370030c7b300804f5100e900320046
:10b7d00007003c0064405000804f5100560032008a
:10b7e0000040e800804f5100f9003a00d3003700d4
:10b7f00050c7b300804f51004f00320063404000fb
:10b80000804f5100f2003a004b0037001181e900ef
:10b81000820878007800900012417800ea00370032
:10b8200028609000c4c6b300844f500007003a005f
:10b830001102780064005200800878001002be00f7
:10b840004fabde00860378001100370014c7b30049
:10b85000844f500003003200a4c6b300844f500050
:10b8600006003a0011027800680052008008780053
:10b870003002be002003be00050037001180e90041
:10b880008008780010027800cfa2de00612bb9009a
:10b89000049cbe000694be002860900081c6b300e0
:10b8a000814f50000d00320021c6b300814f50007f
:10b8b00004003a000402fb00cfa2de00612bb900b5
:10b8c0000800370041c7b300814f50000300320029
:10b8d000e6c04000814f500004003a00cfa2de00d5
:10b8e000612bb900049cbe000694be003802be0065
:10b8f0002803be0078009000d1c2b300e00f5200d0
:10b90000e08f5a00e00f5b00e08f5b00080035001d
:10b91000881090000118a30002003200b1c2b300e9
:10b92000030037000108a3004c00320001c2b3003d
:10b93000817178004700370028609000c4c6b300ca
:10b94000844f500006003a00110278006400520053
:10b95000800878001002be006033b8001100370084
:10b9600014c7b300844f500003003200a4c6b300d4
:10b97000844f500006003a0011027800680052001f
:10b98000800878003002be002003be0005003700aa
:10b990001180e90080087800100278008002eb0036
:10b9a0006033b800049cbe000694be00286090007e
:10b9b00081c6b300814f50000d00320021c6b30094
:10b9c000814f500004003a000482fb008002eb002b
:10b9d0006033b8000800370041c7b300814f500002
:10b9e00003003200e6c04000814f500004003a00de
:10b9f0008002eb006033b800049cbe000694be00d9
:10ba0000081090000038a300140032003802be0075
:10ba10002803be00e00f5200e08f5a00e00f5b00e9
:10ba2000e08f5b000d00320080c7b300804f5100f3
:10ba30000300320080c5b300804f510007003a0078
:10ba40007800900001c3b300817178000000e80025
:10ba5000827178000000e80070049800780090007f
:10ba60008081410063049800824078003e003700e6
:10ba700028619000c3c6b3001180e900834f5100d4
:10ba8000220032000a003c00e4c15100834f510003
:10ba90002500320083c1e800834f510013003200bb
:10baa000e8c15100834f51001e003a000a003700e0
:10bab00043c7b300834f51001b003200e6c1410071
:10bac000834f510018003200e9c15100834f5100eb
:10bad00014003a0005003700800878001000780054
:10bae000485c9000084878004100370080087800e2
:10baf00010007800680a9000cfa2de00612bb90028
:10bb00000498be000690be00390037008008780017
:10bb10001000780068099000cf91de000288be0016
:10bb2000330037001180e9008008780010007800a9
:10bb3000680c9000080878002d0037001180e9009b
:10bb40008008780010027800cfa2de00612bb900d7
:10bb5000049cbe000694be007800900080814100e5
:10bb60006304980081c7b300080078001001070043
:10bb70001f0037001180e900800878001005780068
:10bb80006a049800d80c90000900e00004003d0011
:10bb90000a007800e8fb07008004780007003700ff
:10bba000090178008000eb000a007800a30007007c
:10bbb0000000e000010032008a045000190c9800d7
:10bbc0000b00370078009000827178000600370083
:10bbd00078009000808141000204e00001003a00fa
:10bbe00052c2b300824978000000e8007004980057
:10bbf0000000eb004f0578004f04be000000060077
:10bc0000889fbe008a1f7800000478000800e000ca
:10bc10000d003a0008712600700544008004eb0016
:10bc2000580078000000e00004003200f4ff070034
:10bc30000000e00001003d008084eb008a0f54000a
:10bc4000f7ff3a00250037000000220018006000ce
:10bc50008004eb0021003200a80490000f003700a0
:10bc600009015100384090000000fb008900780075
:10bc700081fa07000000e00007003c002800900067
:10bc80004004980060049800500c98001890a000a0
:10bc90008084eb001100370080844400480190004c
:10bca000828f5400eeff3900280090004004980075
:10bcb0009800780002c020000281600001003a0074
:10bcc0003800900001e8a3000200320060049800f0
:10bcd00001003700500c98008004eb000900780048
:10bce0004f0578004f04be0000000600889fbe008c
:10bcf0008a9fbe008c9fbe008e1f780000067800d1
:10bd00000104780002007800830478000881b900fb
:10bd1000020778000200e000420032000800e00064
:10bd20004100320082057800c9009000690090004f
:10bd3000808f50000400390009007800550007008a
:10bd40000000e000290035000040200019006000dc
:10bd50000a0032000b017800a10020000c007800de
:10bd600036000700800678000d00e0000600320073
:10bd7000610516000a854600040037000b057800af
:10bd80008006eb00010037000b05780049009000a9
:10bd9000e9009000808050008a8f5000020031003e
:10bda000010578008006eb000a0178008c0078001d
:10bdb00041fb07008a855500490090000a004000b9
:10bdc000c00498000d00e000040032000900780073
:10bdd0008bff07000000e00004003a000b00e000c9
:10bde000020032000a064600cfff37000080200024
:10bdf00019006000020032000900780080ff07008f
:10be000000c02000190060000200320049009000cc
:10be1000e00498008b055700110009008885d800c0
:10be2000010037000000eb004f0778004f06be000e
:10be30004f05be004f04be0000000600030037009f
:10be4000b0cf1000050032000201e9008001780047
:10be50000200e000faff3a0000000500030078004d
:10be600000000600020037000304e0000600320074
:10be70000001780002007800b041780081cf5100c5
:10be8000f9ff3a00010037000001eb0002007800e2
:10be900000000600889fbe008a1f7800000478001a
:10bea000c8009000680190000000eb00828f5000f5
:10beb0003c003900180078002200290002016000cf
:10bec000e20f510007003200012024000000e000d2
:10bed00001003d0001202000008c70000080eb007c
:10bee000300037000200260002006000820f500080
:10bef00009003a0038009000808f50000600390099
:10bf0000080078003eff0700800078000080eb000a
:10bf10000100e00023003a001805780000c020006e
:10bf20000000650018003a00a8049000600220009c
:10bf300008004000808f540013003a0000202000c9
:10bf4000a5fa0700200498000000e00005003a0070
:10bf500029049800490498008904e80039049800ed
:10bf6000080037000a60a0000a0c7800400498001e
:10bf7000012020008080400031049800400c98008f
:10bf8000500c9800f9010700280090005004980018
:10bf9000380090006004980000002600180c700023
:10bfa0000000eb004f0578004f04be0000000600c3
:10bfb000fc874700889fbe008a9fbe008c9fbe0002
:10bfc0008e1f78000006780080c5b30080cf500037
:10bfd0000a0032007740400080cf50000a00320053
:10bfe0006940400080cf50000b00320030a5260091
:10bff00080bf9f00ae0020000a00370022a4260068
:10c0000082bf9f000600370033a5260083bf9f0034
:10c010008e0020000300370034a5260084bf9f0057
:10c020000e0120003c02be002c03be000605be002f
:10c030000404be0040c6b30080cf500003003200ad
:10c040006540400080cf50000b003a00e00f5200e6
:10c05000e08f5a00e00f5b00e08f5b0006003d00c0
:10c060006000b8006011b8000404500085845800d6
:10c070000605590087855900e80f57000400320073
:10c0800040002000f00f570038003a000100370050
:10c0900030002000e00f5400e08f5c00e00f5d00f6
:10c0a000e08f5d0004003a00dc0890008d01200064
:10c0b0000100e000060032008e00e9008880600088
:10c0c0008fba9700e5c07800f1ef9f007d01200056
:10c0d000800078008100e900050033008b05d10065
:10c0e0000a85d3008984d3000884d300f9ff370080
:10c0f000089ebe000a96be00120037008d06e900b9
:10c100008e00e900848060000fb99700e2c17800da
:10c1100082fd2f000f01410003f17e0080007800b6
:10c120008100e900050033008783d1000683d30036
:10c130008582d3000482d300f9ff3700049ebe003d
:10c140000696be003c02be002c03be00e00f52006b
:10c15000e08f5a00e00f5b00e08f5b008b00340043
:10c160000d00e000e5ff3c00880037002c609000e7
:10c1700081c6b300814f50000b00320006003c0026
:10c180000004e00008003200e6c05000814f50007b
:10c190004e003a0004003700c1c6b300814f500082
:10c1a0004a003a00210037000800e00004003a008d
:10c1b0005c0890008d0120000000e00006003200c5
:10c1c000110009000e84d8000fb99700e2c0780072
:10c1d000f1ef9f007d012000110009000e84d800be
:10c1e0000a003700110009000e04d8008d06e9008e
:10c1f0000e81b900020454008fb8970061417c00a1
:10c2000081fd2f008f80400082f07e0000047800c6
:10c210000800e000020032000d00e000f1ff3c00e9
:10c22000cfc4de00614db90025003700e00f540097
:10c23000e08f5c0004003a005c0890008d01200053
:10c240000000e000070032006171b9000800be0084
:10c25000d80107008fb99700e3417800f3ef9f0002
:10c260007d0120006171b9000800be00c101070016
:10c270000b0037006171b9000800be00ae01070075
:10c280008d06e90000f1b900020454000fba9700ce
:10c29000e4427c0084fd2f000f02420005f27e0084
:10c2a0000004be00e00f5000e08f58000200320092
:10c2b0000d00e000efff3c004fcdde008a05780066
:10c2c000089ebe000a96be0030003700e00f540002
:10c2d000e08f5c00e00f5d00e08f5d0004003a003d
:10c2e0005c0890008d0120000000e0000900320091
:10c2f0006172b900612bb9000800be000a01be00de
:10c30000550207000fba970064427800f4ef9f00cf
:10c310007d0120006172b900612bb9000800be00e8
:10c320000a01be00450207000d0037006172b90026
:10c33000612bb9000800be000a01be004a020700d6
:10c340008d06e90000f2b900040454008fba97008a
:10c3500065427c0085fd2f008f82420084f27e00c2
:10c36000009ebe000296be003c04be002c05be002e
:10c37000e00f5400e08f5c00e00f5d00e08f5d0097
:10c38000020034000d00e000e8ff3c00e80f570019
:10c3900010003a000c1090000038a3000d0032008d
:10c3a000f78f560006003e0085fd2f008f82420069
:10c3b000e5c07e0000c3b30080cf5000050032000e
:10c3c0008d06e90002c3b30081fd2f008f8040007d
:10c3d00082f07e0078811600120e98006c009000aa
:10c3e00083fd2f008f8141008d804100b2f907004d
:10c3f0001c089000dc089000810f500006003d00f2
:10c4000000805000000e98000c1090000040a10029
:10c41000001698000f0037000100e0000d003d00fd
:10c420008c109000f4806000f08f500009003a00fa
:10c430007c099000fc009000810051000c099000e4
:10c4400082805000008050004240a900010034006a
:10c45000000e98004f0778004f06be004f05be0043
:10c460004f04be00cf01b100000006000400fa0036
:10c47000889fbe008a9fbe008c1f78000004780051
:10c4800001067800f80d9000780090008085550036
:10c490000808900080855500180890008085550098
:10c4a0002808900080855500380890008085550048
:10c4b00048089000808555000002220090bf9f0030
:10c4c00000032300a0bf9f00081090000028a300d5
:10c4d00015003a000b00e000130034000b05780053
:10c4e0008a047800e20f5500010036002900200080
:10c4f000c801900009017800ee80570058009000b4
:10c5000003000100500498000000e0008c0032009d
:10c510006808900009004000600c9800090555006b
:10c520004240a900eeff3c00780190000200e000cc
:10c530000c003400c80190008c0078005800900076
:10c5400003000100500498008080eb000000e00030
:10c550007c003200e80890007800900000804000e5
:10c56000600c9800880c90000900e0001100340075
:10c5700009057800e28f5400010036002a002000ef
:10c58000c80190000a017800ec8057005800900024
:10c5900003000100500498000000e0006800320031
:10c5a000680890000a004000600c98008a845400db
:10c5b000edff3700180990000200e0000c00340085
:10c5c000c8019000e80090005800900003000100ae
:10c5d000500498008080eb000000e0005900320019
:10c5e000e80890001808900000804000600c980057
:10c5f000a80c90000900e000110034000905780043
:10c60000e28f5400010036002a002000c80190008b
:10c610000a017800ec8057005800900003000100e8
:10c62000500498000000e0004500320068089000c7
:10c630000a004000600c98008a845400edff370027
:10c64000380990000200e0000e003400e80090007d
:10c650001808900080804000c801900058009000a9
:10c6600003000100500498008080eb000000e0000f
:10c6700034003200e8089000380890000080400044
:10c68000600c9800c80c90000900e0001100340014
:10c6900009057800e28f5400010036002a002000ce
:10c6a000c80190000a017800ec8057005800900003
:10c6b00003000100500498000000e0002000320058
:10c6c000680890000a004000600c98008a845400ba
:10c6d000edff3700081090008000eb000028a30059
:10c6e000180032000b00e000160034008b047800c4
:10c6f00009057800e28f5400010036002a0020006e
:10c70000c80190000a017800ee80570058009000a0
:10c7100003000100500498000000e000080032000f
:10c72000680890000a004000600c98008a84540059
:10c730004240a900eeff3c008000eb000100370002
:10c740008080eb00010078004f0678004f05be00a6
:10c750004f04be000080fa000000060001087800c7
:10c76000000006008045260061003700881f780021
:10c77000e8ba26001804e00003003a00f9ff0700b9
:10c7800020c0b300004c78004f0478000000060081
:10c79000889fbe00000478000800780018fd07009c
:10c7a00080047800000420001800600002003200bd
:10c7b0002800900023f807000000eb0020049800f8
:10c7c000384090000004e000050035000000fb0048
:10c7d000a0f707000000e000010032008084eb00b9
:10c7e000181090000000e00008003200d0f70700a9
:10c7f0000000e000010032008084eb00181090007f
:10c8000010f807000000eb0010149800000820004a
:10c8100018006000150032000001eb006000b80055
:10c82000237126000202d00063027a00880f5200b2
:10c8300005003a000000400081804800008041006f
:10c840000008eb000600370061004000e08048006f
:10c850000201e800e80f5000e08f5800f0ff3a00b6
:10c8600008007800f7f707000e003700000c78008a
:10c8700000c0eb0030449800600220000800400037
:10c88000200498004004980050049800400c980040
:10c8900060049800500c98007004980076004400e2
:10c8a000000c9800090078004f04be00000006004c
:10c8b000881f78000004eb006140b800e2ff2f0001
:10c8c000f3ff2f003e00070002722600620078008e
:10c8d0000000e00001003200adff07000804e8009e
:10c8e000e80f5400f4ff3a004f04780000000600ff
:10c8f000010020000100e00008003200010080007b
:10c900000100e000050032008100e900010088001c
:10c910008100d0000200800000b178000000060015
:10c9200000c0da000000060000c0da0000000600c7
:10c9300000c0da0000000600839f68000100e000ec
:10c9400002003d0060001000e08018000300e000dd
:10c9500002003d0060011100e081190005000700a0
:10c960004f00e00002003b0060001000e080180073
:10c97000000006006022b800060220000000d0007f
:10c980008180d2000482d2008582d2000000a00003
:10c990000202520083825a00030031000202420068
:10c9a00083824a000000a1000603e900f3ff3a0079
:10c9b00000000600efff07000400be0000000600b4
:10c9c000020ab900001bb9000200b8008100420051
:10c9d0008100430000000600889fbe008a9fbe00c1
:10c9e00030044200b0844a0030054b0090854b0073
:10c9f0006000b1000898be000a90be000440e1004b
:10ca000005c8e10006d0e10007d8e10002003100ce
:10ca1000680040001008e8004f05be004f04be004b
:10ca200000000600889fbe008a9fbe003004be0042
:10ca30002005be000418540005985c0006185d002f
:10ca400007985d00110020000440e10005c8e100e6
:10ca500006d0e10007d8e100010039008000eb00ba
:10ca6000108810004f05be004f04be0000000600f5
:10ca70001200fa00889fbe008a9fbe008c9fbe00f5
:10ca8000e0b79f00f1b79f0082bf9f0093bf9f0058
:10ca90000605be000404be000000eb00d0b79f00f6
:10caa000c0b79f00b0b79f00a0b79f0090b79f008e
:10cab0000006eb005fb19700cfb097008201410004
:10cac0003fb097000200e00004003d00370007007f
:10cad0007e805700c0ff07000300370033000700c7
:10cae0007e805700cfff0700dfb697000d00e00003
:10caf0000c0035006fb29700ffb297000fbb970094
:10cb00009fbb970010002000010020006011b800ba
:10cb1000000272008182720002037300838373003b
:10cb20001b0007000c06e80001042000810f5600de
:10cb3000e0ff3a000d00e00004003d000802be00e6
:10cb40000a03be007e805700a3ff07005fa897007e
:10cb50000000e00005003a001fb29700afb2970056
:10cb60003fb39700cfb39700090007006fb097005d
